:040000008031132810
:100008007E14803120007F08F9008B1A0B1D0E2802
:100018008231AA2279082000FF007E100900803171
:100028001528F001F101F201F301F40120308400F8
:100038000030850011308231B1227E1020008131DC
:10004800E329F80102307802031808007808F5005F
:100058000230F535FF3E031D2D287535203E8600FC
:10006800870116000104031999287808F500023061
:10007800F535FF3E031D3C287535023E203E8600BF
:10008800870116000104031D87287808F50002304F
:10009800F535FF3E031D4C287535063E203E86008B
:1000A80087010130810741310318810A7808F5007A
:1000B8000230F535FF3E031D5D287535043E203EB0
:1000C8008600870116000104031999287808F500AD
:1000D8000230F535FF3E031D6D287535043E203E80
:1000E800860087017808F6000230F635FF3E031DCA
:1000F80079287635023E203E84008501403F803FC6
:10010800413F813F99287808F5000230F535FF3ED8
:10011800031D8A287535023E203E8600870101307E
:10012800810241310030813B7F310130F500750893
:10013800F80726282000BA01A5280130B70037089B
:10014800BA073A08B7000230B735FF3E031DA828A2
:100158003735203E86008701160001040319B828A8
:1001680002303A02031CA12802303A0203180800A0
:100178003A08B7000230B735FF3E031DBF283735B0
:10018800203E860087013108C03F3208C13F3A0847
:10019800B7000230B735FF3E031DCE283735023E83
:1001A800203E860087013308C03F3408C13F350828
:1001B800FF3EB700FF30363DB8003A08B9000230BC
:1001C800B935FF3E031DE4283935043E203E86003C
:1001D80087013708C03F3808C13F3A08B7000230E6
:1001E800B735FF3E031DF4283735063E203E86000E
:1001F80087010030C03FC13F08002000BA0102302B
:100208003A02031857293A08B7000230B735FF3EBB
:10021800031D0A293735063E203E86008701160051
:10022800010403194E293A08B7000230B735FF3EDA
:10023800031D1A293735203E86008701413F8A0071
:10024800403F0A00813120003A08B7000230B73534
:10025800FF3E031D2B293735063E203E86008701C9
:100268000130810241310030813B7F313A08B700CB
:100278000230B735FF3E031D3D293735043E203E89
:100288008600870116000104031D4E293A088131B2
:100298005A21813101302000B7003708BA070230EF
:1002A8003A02031C07298231C42208002000B50045
:1002B8003508B1000230B135FF3E031D5F293135E5
:1002C800203E8600870116000104031D6D29B40134
:1002D80008003508B1000230B135FF3E031D702912
:1002E8003135203E860087010030C03FC13F3508C8
:1002F800B1000230B135FF3E031D7E293135023E83
:10030800203E860087010030C03FC13F3508B1005C
:100318000230B135FF3E031D8D293135043E203EA4
:10032800860087010030C03FC13F3508B100023068
:10033800B135FF3E031D9C293135063E203E86001F
:1003480087010030C03FC13FB401B40A0800220051
:100358008D018C018E013F3024008C00F0308D001F
:10036800FF308E00173023008C00F0308D00CF3026
:100378008E00F03021008D00DF308E0011308C00AF
:10038800951300308B1B01302000B1008B135530C2
:100398003C008F00AA308F000F100E303D00A500E2
:1003A80005303C00980055308F00AA308F000F149C
:1003B8002000311CE1298B1708008B1308008231BB
:1003C8008422813122008C100C118C12823141223E
:1003D8008131BD302000B1000230B2000030B300DE
:1003E800B4007D30B5000030B60080319E208131E8
:1003F80056302000B1000230B2000130B3000030A6
:10040800B4007D30B5000030B60080319E208131C7
:100418008231772281318131012181310F2A2000F7
:100428003208B4003108B300B436B30CB436B30C98
:1004380033082C009800200031080339B300053038
:10044800B335FF3E031D242A33352C0097000800DE
:1004580021001508C039163895000630200095008F
:100468000630B3003308F4000B118B16C530B10009
:100478000230B2008231B72208002000B7010230F2
:1004880037020318542A370881315A218231013042
:100498002000B6003608B70702303702031C472A87
:1004A800B00108007208803E2000B5000030733D9E
:1004B800B600FF303505F20003303605F300730847
:1004C800B2007208B10082311322080010302000F7
:1004D8009C009E019D019F01FF309B009A01901096
:1004E8008231C122080082312C228231253020003D
:1004F800B1000030B2008231B7220B178B17080009
:100508008131AB2182318231A322823182316A2248
:10051800823182319A220800700871040319080098
:1005280071088A0070080A008231080080302C00A7
:10053800990098019701CF3025009E050800783072
:100548002100990098011A1B0800A72A0B117408AA
:10055800200095008231902208006400800101315A
:10056800890BB22A003420003208F1003108F0006B
:100578000800203022008C06080020009C17080084
:04058800080008005F
:020000040001F9
:06000E00FC3FFF3F9F3F95
:00000001FF
