:040000008031132810
:100008007E14803120007F08FC008B1A0B1D0E28FF
:100018008331FE237C082000FF007E100900803118
:1000280015282030840000308500313084310524C3
:100038007E1020008331DE2B2100AD01AD0A023095
:100048002D02031861282D08A600A7012608A00084
:100058002708A1000330A2000030A3008331272322
:100068008031210021088500200884000C30840795
:100078008330853D0008A8002808AE002E08031D1F
:1000880050282330A0008330A1002A30A20003307A
:10009800A30084311A24803121002D08A6002E08DF
:1000A8000D3E86008701260881000130A60026083B
:1000B800AD0702302D02031C2728AD01AD0A02301E
:1000C8002D0203188A282D08A600A7012608A000DB
:1000D8002708A1000330A2000030A30083312723A2
:1000E8008031210021088500200884000C30840715
:1000F8008330853D0008A8002808AE000130A6001E
:100108002608AD0702302D02031C67288431172406
:1001180080316D292008CA3E840082300318013ED0
:10012800850000082100A6002608AD002D08A600BD
:10013800A7012608A0002708A1000330A20000306C
:10014800A3008331272380310C302100A80083309D
:10015800A90020082807AB002108293DAC002D087C
:10016800A600A7012608A0002708A1000330A200C6
:100178000030A30083312723803121002108850026
:10018800200884000C3084078330853D0008A800CF
:100198002808AE002E08103E860087010108031DBE
:1001A800E0282330A0008330A1003430A2000330BF
:1001B800A30084311A24803121002E08103E8600C5
:1001C8008701013081022E08103E86008701010850
:1001D800031DFA282D08DA3E840082300318013EF8
:1001E80085000008A60026082000A00521002C088C
:1001F800A7002B08A600013026078400270803184B
:10020800270A85000008A8000330A9002908200053
:10021800E00021002E080F3E860087010108833187
:100228009423803121002807860087010108AA004D
:100238002E08063E860087012A0881000330A600A2
:1002480026082000E00021002E080F3E86008701C6
:1002580001088331942380312100A7002C08A900CC
:100268002B08A80001302807840029080318290A48
:10027800850000082707AA0001302A0786008701A1
:100288002E08073E84008501403F803F413F813F63
:100298002E080F3E860087010108031D66292C08D9
:1002A800A7002B08A6000230260784002708031899
:1002B800270A85000008A8002E080F3E860087013F
:1002C800280881002E080F3E860087010130810230
:1002D8008B178B1320002008031D8E2884311424CB
:1002E80080316D2976080D3E8600870101082000BF
:1002F800D100D2015108F0005208F1000330F20099
:100308000030F3008331792381310C302000D30091
:100318008330D40070085307D7007108543DD800C3
:100328005808D2005708D1000230510784005208FB
:100338000318520A85000008D3005308D60076082F
:10034800103E860087010108D100D201D109D209E7
:10035800D10A0319D20A56085107D30052080318C4
:10036800520AD4005408803A803C031DBD29530822
:10037800770203183B2A78082000D1005808D300D8
:100388005708D20001305207840053080318530A53
:1003980085000008D4000330D5005508F000760821
:1003A8000E3E8600870101088331C0238131200079
:1003B800540786008701510881000330D100510895
:1003C800F00076080E3E8600870101088331C023BD
:1003D80081312000D2005808D4005708D3000130DA
:1003E8005307840054080318540A8500000852076C
:1003F800D50001305507860087017A08C03F7B0881
:10040800C13F76080E3E860087010108031D142AA5
:100418005608D10076080E3E8600870151088100F3
:1004280076080E3E86008701013081020130D10036
:100438007608103E86008701510881077608103E2D
:10044800860087010103031D382A76080D3E8600C1
:1004580087010108E33E840082300318013E8500CD
:100468000008D1005108A004F701F70A080077082E
:10047800031D482A1F30F0008330F1009A30F20043
:100488000130F30084311B24F70108002000DC0050
:10049800DD01DD0A5D08D900DA015908F0005A08C3
:1004A800F1000330F2000030F30083317923823108
:1004B80071088500700884000C3084078330853DFE
:1004C80000082000DB005B08DE005C08D900023071
:1004D800D935890B6C2A09305907DA005E085A07A2
:1004E800DB005B08DF005F08860087011600010457
:1004F8000319C32A5F088600870101308102413150
:100508000030813B7F315F088600870116000104B7
:10051800031DC32A5F08023E8600870116000104F6
:100528000319A12A5F08023E860087015F0884003C
:100538008501403F803F413F813F5E08D90059080F
:10054800F600F7015C08043EF8000030031801309B
:10055800F9000030FA00FB005E0886008701403F82
:10056800DA00413FDB0006305A0784005B080318B5
:100578005B0A8500013F8A00003F0A008231013092
:100588002000DD025D08031908004E2A00340134FA
:10059800023402340334033403340334043404349B
:1005A800043404340434043404340434FF34FE348E
:1005B800FD34FB34F734EF34DF34BF347F34003498
:1005C8000134023404340834103420344034803484
:1005D80035342E3435342E343134003440347134CB
:1005E80066346E345F3469346E346934743400347C
:1005F80000340034003400340034003476340134DC
:1006080000340034003400340034003476340134CB
:10061800003400340034403422340A3471346534F0
:1006280070346E3400340034003400340034003444
:10063800003400340034713466346E34003471345C
:1006480076346E3400342100A401A501201C302B1F
:100658002208A4072308A53D0130A235A30D890B64
:10066800312B0130A136A00C890B362B2008210430
:10067800031D2A2B2508A1002408A0000800220039
:100688008D018C018E013F3024008C00F0308D00EC
:10069800FF308E00173023008C00F0308D00CF30F3
:1006A8008E00F03021008D00DF308E0011308C007C
:1006B800951308002000E0006008860087011730C5
:1006C800C03F8330C13F6008023E8600870100308A
:1006D800C03F0030C13F6008043E8600870121000A
:1006E8002008C03F2108C13F0800F401F501701C33
:1006F800812B7208F4077308F53D0130F235F30DCC
:10070800890B822B0130F136F00C890B872B70088E
:100718007104031D7B2B7508F1007408F0000800B4
:100728002100A200A101221C9F2B200060082100AB
:10073800A0002008A10703102000E00D03102100ED
:10074800A20C2208031D972B210808002100A600EF
:100758002308A1002208A000260883315E23FC306C
:100768002100A4008230A5002608860087012408FD
:10077800C03F2508C13F0800F200F301721CC82BD6
:100788007008F1007108F3070310F00D0310F20C64
:100798007208031DC22B7308080000302100A20054
:1007A8000030A300F23084008230850000088331D5
:1007B800AA2308008331D12383318331F523833180
:1007C8000B178B1780312020803113282100150842
:1007D800C0391638950020009501A1010B118B1620
:1007E800080083314323833184310B2483318331DF
:1007F800EA2308000B1120002108950084311024F9
:100808000800640080010131890B062C003478301F
:100818002100990098010800003082314A2208001E
:100828008B170B1708008331EA2308001A2C1B2C9E
:020000040001F9
:06000E00FC3FFF3F9F3F95
:00000001FF
